{
  "_format": "hh-sol-artifact-1",
  "contractName": "Gaming",
  "sourceName": "contracts/Gaming.sol",
  "abi": [
    {
      "inputs": [],
      "stateMutability": "payable",
      "type": "constructor"
    },
    {
      "anonymous": false,
      "inputs": [
        {
          "indexed": false,
          "internalType": "address",
          "name": "funder",
          "type": "address"
        },
        {
          "indexed": false,
          "internalType": "uint256",
          "name": "amount",
          "type": "uint256"
        }
      ],
      "name": "GameFunded",
      "type": "event"
    },
    {
      "anonymous": false,
      "inputs": [
        {
          "indexed": false,
          "internalType": "address",
          "name": "player",
          "type": "address"
        },
        {
          "indexed": false,
          "internalType": "uint256",
          "name": "amount",
          "type": "uint256"
        },
        {
          "indexed": false,
          "internalType": "uint256",
          "name": "mysteryNumber",
          "type": "uint256"
        },
        {
          "indexed": false,
          "internalType": "uint256",
          "name": "displayedNumber",
          "type": "uint256"
        }
      ],
      "name": "PlayerLost",
      "type": "event"
    },
    {
      "anonymous": false,
      "inputs": [
        {
          "indexed": false,
          "internalType": "address",
          "name": "player",
          "type": "address"
        },
        {
          "indexed": false,
          "internalType": "uint256",
          "name": "amount",
          "type": "uint256"
        },
        {
          "indexed": false,
          "internalType": "uint256",
          "name": "mysteryNumber",
          "type": "uint256"
        },
        {
          "indexed": false,
          "internalType": "uint256",
          "name": "displayedNumber",
          "type": "uint256"
        }
      ],
      "name": "PlayerWon",
      "type": "event"
    },
    {
      "anonymous": false,
      "inputs": [
        {
          "indexed": false,
          "internalType": "uint256",
          "name": "wager",
          "type": "uint256"
        },
        {
          "indexed": false,
          "internalType": "uint256",
          "name": "playerNumber",
          "type": "uint256"
        },
        {
          "indexed": false,
          "internalType": "uint256",
          "name": "mysteryNumber",
          "type": "uint256"
        },
        {
          "indexed": false,
          "internalType": "bool",
          "name": "guess",
          "type": "bool"
        },
        {
          "indexed": false,
          "internalType": "string",
          "name": "result",
          "type": "string"
        }
      ],
      "name": "RoundComplete",
      "type": "event"
    },
    {
      "anonymous": false,
      "inputs": [
        {
          "indexed": false,
          "internalType": "uint256",
          "name": "wager",
          "type": "uint256"
        },
        {
          "indexed": false,
          "internalType": "uint256",
          "name": "playerNumber",
          "type": "uint256"
        },
        {
          "indexed": false,
          "internalType": "uint256",
          "name": "mysteryNumber",
          "type": "uint256"
        },
        {
          "indexed": false,
          "internalType": "bool",
          "name": "guess",
          "type": "bool"
        },
        {
          "indexed": false,
          "internalType": "string",
          "name": "result",
          "type": "string"
        }
      ],
      "name": "RoundComplete4",
      "type": "event"
    },
    {
      "inputs": [
        {
          "internalType": "uint256",
          "name": "number",
          "type": "uint256"
        },
        {
          "internalType": "uint256",
          "name": "display",
          "type": "uint256"
        },
        {
          "internalType": "bool",
          "name": "guess",
          "type": "bool"
        }
      ],
      "name": "determineWinner",
      "outputs": [
        {
          "internalType": "bool",
          "name": "",
          "type": "bool"
        }
      ],
      "stateMutability": "pure",
      "type": "function"
    },
    {
      "inputs": [],
      "name": "fundGame",
      "outputs": [],
      "stateMutability": "payable",
      "type": "function"
    },
    {
      "inputs": [],
      "name": "getLosses",
      "outputs": [
        {
          "internalType": "uint256",
          "name": "",
          "type": "uint256"
        }
      ],
      "stateMutability": "payable",
      "type": "function"
    },
    {
      "inputs": [],
      "name": "getLosses333",
      "outputs": [
        {
          "internalType": "uint256",
          "name": "",
          "type": "uint256"
        }
      ],
      "stateMutability": "payable",
      "type": "function"
    },
    {
      "inputs": [],
      "name": "getWins",
      "outputs": [
        {
          "internalType": "uint256",
          "name": "",
          "type": "uint256"
        }
      ],
      "stateMutability": "payable",
      "type": "function"
    },
    {
      "inputs": [],
      "name": "losses",
      "outputs": [
        {
          "internalType": "uint256",
          "name": "",
          "type": "uint256"
        }
      ],
      "stateMutability": "view",
      "type": "function"
    },
    {
      "inputs": [],
      "name": "owner",
      "outputs": [
        {
          "internalType": "address payable",
          "name": "",
          "type": "address"
        }
      ],
      "stateMutability": "view",
      "type": "function"
    },
    {
      "inputs": [
        {
          "internalType": "address",
          "name": "",
          "type": "address"
        }
      ],
      "name": "players",
      "outputs": [
        {
          "internalType": "uint256",
          "name": "wins",
          "type": "uint256"
        },
        {
          "internalType": "uint256",
          "name": "losses",
          "type": "uint256"
        }
      ],
      "stateMutability": "view",
      "type": "function"
    },
    {
      "inputs": [
        {
          "internalType": "uint256",
          "name": "display",
          "type": "uint256"
        },
        {
          "internalType": "bool",
          "name": "guess",
          "type": "bool"
        }
      ],
      "name": "winOrLose",
      "outputs": [
        {
          "internalType": "bool",
          "name": "",
          "type": "bool"
        },
        {
          "internalType": "uint256",
          "name": "",
          "type": "uint256"
        }
      ],
      "stateMutability": "payable",
      "type": "function"
    },
    {
      "inputs": [],
      "name": "winOrLose2",
      "outputs": [
        {
          "internalType": "uint256",
          "name": "",
          "type": "uint256"
        }
      ],
      "stateMutability": "payable",
      "type": "function"
    },
    {
      "inputs": [
        {
          "internalType": "uint256",
          "name": "display",
          "type": "uint256"
        },
        {
          "internalType": "bool",
          "name": "guess",
          "type": "bool"
        }
      ],
      "name": "winOrLose3",
      "outputs": [
        {
          "internalType": "bool",
          "name": "",
          "type": "bool"
        },
        {
          "internalType": "uint256",
          "name": "",
          "type": "uint256"
        }
      ],
      "stateMutability": "payable",
      "type": "function"
    },
    {
      "inputs": [
        {
          "internalType": "uint256",
          "name": "display",
          "type": "uint256"
        },
        {
          "internalType": "bool",
          "name": "guess",
          "type": "bool"
        }
      ],
      "name": "winOrLose4",
      "outputs": [
        {
          "internalType": "bool",
          "name": "",
          "type": "bool"
        },
        {
          "internalType": "uint256",
          "name": "",
          "type": "uint256"
        }
      ],
      "stateMutability": "payable",
      "type": "function"
    },
    {
      "inputs": [],
      "name": "wins",
      "outputs": [
        {
          "internalType": "uint256",
          "name": "",
          "type": "uint256"
        }
      ],
      "stateMutability": "view",
      "type": "function"
    },
    {
      "inputs": [],
      "name": "withdrawFunds",
      "outputs": [],
      "stateMutability": "nonpayable",
      "type": "function"
    }
  ],
  "bytecode": "0x6080604052336000806101000a81548173ffffffffffffffffffffffffffffffffffffffff021916908373ffffffffffffffffffffffffffffffffffffffff1602179055506001600060146101000a81548160ff021916908315150217905550600060018190555060006002819055506114fa8061007e6000396000f3fe6080604052600436106100dd5760003560e01c80638da5cb5b1161007f578063c775539c11610059578063c775539c14610273578063e169bf6c14610291578063e2eb41ff1461029b578063fc541ef3146102d9576100dd565b80638da5cb5b1461020c578063940c97aa14610237578063c3aabf2d14610255576100dd565b806330d45029116100bb57806330d450291461016157806335e1983e146101925780636f22d6a5146101b05780637844a3ba146101db576100dd565b8063171273a5146100e257806324600fc31461011f57806324de908d14610136575b600080fd5b3480156100ee57600080fd5b5061010960048036038101906101049190610e90565b61030a565b6040516101169190610ef2565b60405180910390f35b34801561012b57600080fd5b50610134610377565b005b34801561014257600080fd5b5061014b61044e565b6040516101589190610f1c565b60405180910390f35b61017b60048036038101906101769190610f37565b610454565b604051610189929190610f77565b60405180910390f35b61019a6106dd565b6040516101a79190610f1c565b60405180910390f35b3480156101bc57600080fd5b506101c56106e7565b6040516101d29190610f1c565b60405180910390f35b6101f560048036038101906101f09190610f37565b6106ed565b604051610203929190610f77565b60405180910390f35b34801561021857600080fd5b50610221610976565b60405161022e9190610fe1565b60405180910390f35b61023f61099a565b60405161024c9190610f1c565b60405180910390f35b61025d610a5e565b60405161026a9190610f1c565b60405180910390f35b61027b610a68565b6040516102889190610f1c565b60405180910390f35b610299610a72565b005b3480156102a757600080fd5b506102c260048036038101906102bd919061103a565b610b3b565b6040516102d0929190611067565b60405180910390f35b6102f360048036038101906102ee9190610f37565b610b5f565b604051610301929190610f77565b60405180910390f35b6000600115158215150361033f57828411156103295760019050610370565b8284101561033a5760009050610370565b61036f565b600015158215150361036e578284111561035c5760009050610370565b8284101561036d5760019050610370565b5b5b5b9392505050565b60008054906101000a900473ffffffffffffffffffffffffffffffffffffffff1673ffffffffffffffffffffffffffffffffffffffff163373ffffffffffffffffffffffffffffffffffffffff1614610405576040517f08c379a00000000000000000000000000000000000000000000000000000000081526004016103fc90611113565b60405180910390fd5b3373ffffffffffffffffffffffffffffffffffffffff166108fc479081150290604051600060405180830381858888f1935050505015801561044b573d6000803e3d6000fd5b50565b60015481565b60008060011515600060149054906101000a900460ff161515146104ad576040517f08c379a00000000000000000000000000000000000000000000000000000000081526004016104a49061117f565b60405180910390fd5b343373ffffffffffffffffffffffffffffffffffffffff163111610506576040517f08c379a00000000000000000000000000000000000000000000000000000000081526004016104fd906111eb565b60405180910390fd5b6000610510610de8565b9050600061051f82878761030a565b90506000600360003373ffffffffffffffffffffffffffffffffffffffff1673ffffffffffffffffffffffffffffffffffffffff16815260200190815260200160002090506001151582151503610644576001816000016000828254610585919061123a565b92505081905550600180600082825461059e919061123a565b925050819055503373ffffffffffffffffffffffffffffffffffffffff166108fc6002346105cc919061126e565b9081150290604051600060405180830381858888f193505050501580156105f7573d6000803e3d6000fd5b507f05bb7924248cee9db500cb69e17c14e314413ba322759d375d60e1cbbff780903488858960405161062d94939291906112fc565b60405180910390a1600183945094505050506106d6565b60001515821515036106d2576001816001016000828254610665919061123a565b9250508190555060016002600082825461067f919061123a565b925050819055507f72a8200ca7e7c30b1e73b9308514c0e4bc4b499c6cc862c03a87d43e82451768348885896040516106bb94939291906113a0565b60405180910390a1600083945094505050506106d6565b5050505b9250929050565b6000600254905090565b60025481565b60008060011515600060149054906101000a900460ff16151514610746576040517f08c379a000000000000000000000000000000000000000000000000000000000815260040161073d9061117f565b60405180910390fd5b343373ffffffffffffffffffffffffffffffffffffffff16311161079f576040517f08c379a0000000000000000000000000000000000000000000000000000000008152600401610796906111eb565b60405180910390fd5b60006107a9610de8565b905060006107b882878761030a565b90506000600360003373ffffffffffffffffffffffffffffffffffffffff1673ffffffffffffffffffffffffffffffffffffffff168152602001908152602001600020905060011515821515036108dd57600181600001600082825461081e919061123a565b925050819055506001806000828254610837919061123a565b925050819055503373ffffffffffffffffffffffffffffffffffffffff166108fc600234610865919061126e565b9081150290604051600060405180830381858888f19350505050158015610890573d6000803e3d6000fd5b507f05bb7924248cee9db500cb69e17c14e314413ba322759d375d60e1cbbff78090348885896040516108c694939291906112fc565b60405180910390a16001839450945050505061096f565b600015158215150361096b5760018160010160008282546108fe919061123a565b92505081905550600160026000828254610918919061123a565b925050819055507f05bb7924248cee9db500cb69e17c14e314413ba322759d375d60e1cbbff780903488858960405161095494939291906113a0565b60405180910390a16000839450945050505061096f565b5050505b9250929050565b60008054906101000a900473ffffffffffffffffffffffffffffffffffffffff1681565b600060011515600060149054906101000a900460ff161515146109f2576040517f08c379a00000000000000000000000000000000000000000000000000000000081526004016109e99061117f565b60405180910390fd5b343373ffffffffffffffffffffffffffffffffffffffff163111610a4b576040517f08c379a0000000000000000000000000000000000000000000000000000000008152600401610a42906111eb565b60405180910390fd5b6000610a55610de8565b90508091505090565b6000600154905090565b6000600254905090565b60008054906101000a900473ffffffffffffffffffffffffffffffffffffffff1673ffffffffffffffffffffffffffffffffffffffff163373ffffffffffffffffffffffffffffffffffffffff1614610b00576040517f08c379a0000000000000000000000000000000000000000000000000000000008152600401610af790611113565b60405180910390fd5b7f5c963fd7fde519af29d56159e6e3e18db4e5d3e4716c39c87958cf9e4862ed583334604051610b31929190611407565b60405180910390a1565b60036020528060005260406000206000915090508060000154908060010154905082565b60008060011515600060149054906101000a900460ff16151514610bb8576040517f08c379a0000000000000000000000000000000000000000000000000000000008152600401610baf9061117f565b60405180910390fd5b343373ffffffffffffffffffffffffffffffffffffffff163111610c11576040517f08c379a0000000000000000000000000000000000000000000000000000000008152600401610c08906111eb565b60405180910390fd5b6000610c1b610de8565b90506000610c2a82878761030a565b90506000600360003373ffffffffffffffffffffffffffffffffffffffff1673ffffffffffffffffffffffffffffffffffffffff16815260200190815260200160002090506001151582151503610d4f576001816000016000828254610c90919061123a565b925050819055506001806000828254610ca9919061123a565b925050819055503373ffffffffffffffffffffffffffffffffffffffff166108fc600234610cd7919061126e565b9081150290604051600060405180830381858888f19350505050158015610d02573d6000803e3d6000fd5b507f05bb7924248cee9db500cb69e17c14e314413ba322759d375d60e1cbbff7809034888589604051610d3894939291906112fc565b60405180910390a160018394509450505050610de1565b6000151582151503610ddd576001816001016000828254610d70919061123a565b92505081905550600160026000828254610d8a919061123a565b925050819055507f05bb7924248cee9db500cb69e17c14e314413ba322759d375d60e1cbbff7809034888589604051610dc694939291906113a0565b60405180910390a160008394509450505050610de1565b5050505b9250929050565b6000806001600a600143610dfc9190611430565b4060001c610e0a9190611493565b610e14919061123a565b90508091505090565b600080fd5b6000819050919050565b610e3581610e22565b8114610e4057600080fd5b50565b600081359050610e5281610e2c565b92915050565b60008115159050919050565b610e6d81610e58565b8114610e7857600080fd5b50565b600081359050610e8a81610e64565b92915050565b600080600060608486031215610ea957610ea8610e1d565b5b6000610eb786828701610e43565b9350506020610ec886828701610e43565b9250506040610ed986828701610e7b565b9150509250925092565b610eec81610e58565b82525050565b6000602082019050610f076000830184610ee3565b92915050565b610f1681610e22565b82525050565b6000602082019050610f316000830184610f0d565b92915050565b60008060408385031215610f4e57610f4d610e1d565b5b6000610f5c85828601610e43565b9250506020610f6d85828601610e7b565b9150509250929050565b6000604082019050610f8c6000830185610ee3565b610f996020830184610f0d565b9392505050565b600073ffffffffffffffffffffffffffffffffffffffff82169050919050565b6000610fcb82610fa0565b9050919050565b610fdb81610fc0565b82525050565b6000602082019050610ff66000830184610fd2565b92915050565b600061100782610fa0565b9050919050565b61101781610ffc565b811461102257600080fd5b50565b6000813590506110348161100e565b92915050565b6000602082840312156110505761104f610e1d565b5b600061105e84828501611025565b91505092915050565b600060408201905061107c6000830185610f0d565b6110896020830184610f0d565b9392505050565b600082825260208201905092915050565b7f4f6e6c79206f776e65722063616e2063616c6c20746869732066756e6374696f60008201527f6e00000000000000000000000000000000000000000000000000000000000000602082015250565b60006110fd602183611090565b9150611108826110a1565b604082019050919050565b6000602082019050818103600083015261112c816110f0565b9050919050565b7f5468652067616d65206973206e6f74206f6e6c696e6500000000000000000000600082015250565b6000611169601683611090565b915061117482611133565b602082019050919050565b600060208201905081810360008301526111988161115c565b9050919050565b7f496e73756666696369656e742066756e64730000000000000000000000000000600082015250565b60006111d5601283611090565b91506111e08261119f565b602082019050919050565b60006020820190508181036000830152611204816111c8565b9050919050565b7f4e487b7100000000000000000000000000000000000000000000000000000000600052601160045260246000fd5b600061124582610e22565b915061125083610e22565b92508282019050808211156112685761126761120b565b5b92915050565b600061127982610e22565b915061128483610e22565b925082820261129281610e22565b915082820484148315176112a9576112a861120b565b5b5092915050565b7f776f6e0000000000000000000000000000000000000000000000000000000000600082015250565b60006112e6600383611090565b91506112f1826112b0565b602082019050919050565b600060a0820190506113116000830187610f0d565b61131e6020830186610f0d565b61132b6040830185610f0d565b6113386060830184610ee3565b8181036080830152611349816112d9565b905095945050505050565b7f6c6f737400000000000000000000000000000000000000000000000000000000600082015250565b600061138a600483611090565b915061139582611354565b602082019050919050565b600060a0820190506113b56000830187610f0d565b6113c26020830186610f0d565b6113cf6040830185610f0d565b6113dc6060830184610ee3565b81810360808301526113ed8161137d565b905095945050505050565b61140181610ffc565b82525050565b600060408201905061141c60008301856113f8565b6114296020830184610f0d565b9392505050565b600061143b82610e22565b915061144683610e22565b925082820390508181111561145e5761145d61120b565b5b92915050565b7f4e487b7100000000000000000000000000000000000000000000000000000000600052601260045260246000fd5b600061149e82610e22565b91506114a983610e22565b9250826114b9576114b8611464565b5b82820690509291505056fea2646970667358221220f4d313b94037485e159e7288681809e174bf61508b0c3f3c47564ebca8b7450864736f6c63430008180033",
  "linkReferences": {},
  "deployedLinkReferences": {}
}